{
  "contractName": "Registry",
  "abi": [
    {
      "inputs": [],
      "stateMutability": "nonpayable",
      "type": "constructor"
    },
    {
      "inputs": [
        {
          "internalType": "address",
          "name": "",
          "type": "address"
        },
        {
          "internalType": "uint256",
          "name": "",
          "type": "uint256"
        }
      ],
      "name": "adminMapsProperty",
      "outputs": [
        {
          "internalType": "uint256",
          "name": "surveyNo",
          "type": "uint256"
        },
        {
          "internalType": "string",
          "name": "state",
          "type": "string"
        },
        {
          "internalType": "string",
          "name": "district",
          "type": "string"
        },
        {
          "internalType": "string",
          "name": "city",
          "type": "string"
        },
        {
          "internalType": "address",
          "name": "AllocatedTo",
          "type": "address"
        }
      ],
      "stateMutability": "view",
      "type": "function",
      "constant": true
    },
    {
      "inputs": [
        {
          "internalType": "address",
          "name": "",
          "type": "address"
        }
      ],
      "name": "admins",
      "outputs": [
        {
          "internalType": "address",
          "name": "adminAddress",
          "type": "address"
        },
        {
          "internalType": "string",
          "name": "city",
          "type": "string"
        },
        {
          "internalType": "string",
          "name": "district",
          "type": "string"
        },
        {
          "internalType": "string",
          "name": "state",
          "type": "string"
        }
      ],
      "stateMutability": "view",
      "type": "function",
      "constant": true
    },
    {
      "inputs": [
        {
          "internalType": "string",
          "name": "",
          "type": "string"
        },
        {
          "internalType": "string",
          "name": "",
          "type": "string"
        },
        {
          "internalType": "string",
          "name": "",
          "type": "string"
        },
        {
          "internalType": "uint256",
          "name": "",
          "type": "uint256"
        }
      ],
      "name": "landDetalsMap",
      "outputs": [
        {
          "internalType": "address",
          "name": "owner",
          "type": "address"
        },
        {
          "internalType": "string",
          "name": "tendertype",
          "type": "string"
        },
        {
          "internalType": "string",
          "name": "tenderName",
          "type": "string"
        },
        {
          "internalType": "address",
          "name": "admin",
          "type": "address"
        },
        {
          "internalType": "string",
          "name": "ipfsuri",
          "type": "string"
        },
        {
          "internalType": "uint256",
          "name": "propertyId",
          "type": "uint256"
        },
        {
          "internalType": "uint256",
          "name": "surveyNumber",
          "type": "uint256"
        },
        {
          "internalType": "uint256",
          "name": "index",
          "type": "uint256"
        },
        {
          "internalType": "bool",
          "name": "registered",
          "type": "bool"
        },
        {
          "internalType": "uint256",
          "name": "marketValue",
          "type": "uint256"
        },
        {
          "internalType": "bool",
          "name": "markAvailable",
          "type": "bool"
        },
        {
          "internalType": "uint256",
          "name": "noOfRequests",
          "type": "uint256"
        }
      ],
      "stateMutability": "view",
      "type": "function",
      "constant": true
    },
    {
      "inputs": [
        {
          "internalType": "address",
          "name": "",
          "type": "address"
        },
        {
          "internalType": "uint256",
          "name": "",
          "type": "uint256"
        }
      ],
      "name": "ownerMapsProperty",
      "outputs": [
        {
          "internalType": "uint256",
          "name": "surveyNumber",
          "type": "uint256"
        },
        {
          "internalType": "string",
          "name": "state",
          "type": "string"
        },
        {
          "internalType": "string",
          "name": "district",
          "type": "string"
        },
        {
          "internalType": "string",
          "name": "city",
          "type": "string"
        }
      ],
      "stateMutability": "view",
      "type": "function",
      "constant": true
    },
    {
      "inputs": [
        {
          "internalType": "address",
          "name": "",
          "type": "address"
        },
        {
          "internalType": "uint256",
          "name": "",
          "type": "uint256"
        }
      ],
      "name": "requestedLands",
      "outputs": [
        {
          "internalType": "uint256",
          "name": "surveyNumber",
          "type": "uint256"
        },
        {
          "internalType": "string",
          "name": "state",
          "type": "string"
        },
        {
          "internalType": "string",
          "name": "district",
          "type": "string"
        },
        {
          "internalType": "string",
          "name": "city",
          "type": "string"
        }
      ],
      "stateMutability": "view",
      "type": "function",
      "constant": true
    },
    {
      "inputs": [],
      "name": "superAdmin",
      "outputs": [
        {
          "internalType": "address",
          "name": "",
          "type": "address"
        }
      ],
      "stateMutability": "view",
      "type": "function",
      "constant": true
    },
    {
      "inputs": [],
      "name": "totalAdmins",
      "outputs": [
        {
          "internalType": "uint256",
          "name": "",
          "type": "uint256"
        }
      ],
      "stateMutability": "view",
      "type": "function",
      "constant": true
    },
    {
      "inputs": [],
      "name": "totalTendors",
      "outputs": [
        {
          "internalType": "uint256",
          "name": "",
          "type": "uint256"
        }
      ],
      "stateMutability": "view",
      "type": "function",
      "constant": true
    },
    {
      "inputs": [],
      "name": "totalVendors",
      "outputs": [
        {
          "internalType": "uint256",
          "name": "",
          "type": "uint256"
        }
      ],
      "stateMutability": "view",
      "type": "function",
      "constant": true
    },
    {
      "inputs": [
        {
          "internalType": "address",
          "name": "",
          "type": "address"
        }
      ],
      "name": "userProfile",
      "outputs": [
        {
          "internalType": "address",
          "name": "userAddr",
          "type": "address"
        },
        {
          "internalType": "string",
          "name": "fullName",
          "type": "string"
        },
        {
          "internalType": "string",
          "name": "gender",
          "type": "string"
        },
        {
          "internalType": "string",
          "name": "email",
          "type": "string"
        },
        {
          "internalType": "string",
          "name": "contact",
          "type": "string"
        },
        {
          "internalType": "string",
          "name": "residentialAddr",
          "type": "string"
        },
        {
          "internalType": "uint256",
          "name": "totalIndices",
          "type": "uint256"
        },
        {
          "internalType": "uint256",
          "name": "requestIndices",
          "type": "uint256"
        }
      ],
      "stateMutability": "view",
      "type": "function",
      "constant": true
    },
    {
      "inputs": [
        {
          "internalType": "address",
          "name": "",
          "type": "address"
        }
      ],
      "name": "vendors",
      "outputs": [
        {
          "internalType": "address",
          "name": "vendorAddress",
          "type": "address"
        },
        {
          "internalType": "string",
          "name": "city",
          "type": "string"
        },
        {
          "internalType": "string",
          "name": "district",
          "type": "string"
        },
        {
          "internalType": "string",
          "name": "state",
          "type": "string"
        },
        {
          "internalType": "string",
          "name": "year",
          "type": "string"
        },
        {
          "internalType": "string",
          "name": "vendortype",
          "type": "string"
        },
        {
          "internalType": "uint256",
          "name": "rating",
          "type": "uint256"
        },
        {
          "internalType": "uint256",
          "name": "noofRaters",
          "type": "uint256"
        }
      ],
      "stateMutability": "view",
      "type": "function",
      "constant": true
    },
    {
      "inputs": [
        {
          "internalType": "address",
          "name": "_adminAddr",
          "type": "address"
        },
        {
          "internalType": "string",
          "name": "_state",
          "type": "string"
        },
        {
          "internalType": "string",
          "name": "_district",
          "type": "string"
        },
        {
          "internalType": "string",
          "name": "_city",
          "type": "string"
        },
        {
          "internalType": "string",
          "name": "_fullName",
          "type": "string"
        },
        {
          "internalType": "string",
          "name": "_gender",
          "type": "string"
        },
        {
          "internalType": "string",
          "name": "_email",
          "type": "string"
        },
        {
          "internalType": "string",
          "name": "_contact",
          "type": "string"
        },
        {
          "internalType": "string",
          "name": "_residentialAddr",
          "type": "string"
        }
      ],
      "name": "addAdmin",
      "outputs": [],
      "stateMutability": "nonpayable",
      "type": "function"
    },
    {
      "inputs": [
        {
          "internalType": "address",
          "name": "_vendorAddr",
          "type": "address"
        },
        {
          "internalType": "string",
          "name": "_state",
          "type": "string"
        },
        {
          "internalType": "string",
          "name": "_district",
          "type": "string"
        },
        {
          "internalType": "string",
          "name": "_city",
          "type": "string"
        },
        {
          "internalType": "string",
          "name": "_fullName",
          "type": "string"
        },
        {
          "internalType": "string",
          "name": "_gender",
          "type": "string"
        },
        {
          "internalType": "string",
          "name": "_email",
          "type": "string"
        },
        {
          "internalType": "string",
          "name": "_contact",
          "type": "string"
        },
        {
          "internalType": "string",
          "name": "_residentialAddr",
          "type": "string"
        },
        {
          "internalType": "string",
          "name": "_year",
          "type": "string"
        },
        {
          "internalType": "string",
          "name": "_vendortype",
          "type": "string"
        }
      ],
      "name": "addVendor",
      "outputs": [],
      "stateMutability": "nonpayable",
      "type": "function"
    },
    {
      "inputs": [
        {
          "internalType": "address",
          "name": "_vendortorating",
          "type": "address"
        },
        {
          "internalType": "uint256",
          "name": "_ratenumber",
          "type": "uint256"
        }
      ],
      "name": "GiveRating",
      "outputs": [],
      "stateMutability": "nonpayable",
      "type": "function"
    },
    {
      "inputs": [],
      "name": "isAdmin",
      "outputs": [
        {
          "internalType": "bool",
          "name": "",
          "type": "bool"
        }
      ],
      "stateMutability": "view",
      "type": "function",
      "constant": true
    },
    {
      "inputs": [],
      "name": "isVendor",
      "outputs": [
        {
          "internalType": "bool",
          "name": "",
          "type": "bool"
        }
      ],
      "stateMutability": "view",
      "type": "function",
      "constant": true
    },
    {
      "inputs": [
        {
          "internalType": "string",
          "name": "_state",
          "type": "string"
        },
        {
          "internalType": "string",
          "name": "_district",
          "type": "string"
        },
        {
          "internalType": "string",
          "name": "_city",
          "type": "string"
        },
        {
          "internalType": "uint256",
          "name": "_propertyId",
          "type": "uint256"
        },
        {
          "internalType": "uint256",
          "name": "_surveyNo",
          "type": "uint256"
        },
        {
          "internalType": "address",
          "name": "_owner",
          "type": "address"
        },
        {
          "internalType": "uint256",
          "name": "_marketValue",
          "type": "uint256"
        },
        {
          "internalType": "string",
          "name": "_tenderName",
          "type": "string"
        },
        {
          "internalType": "string",
          "name": "_tendertype",
          "type": "string"
        },
        {
          "internalType": "string",
          "name": "_ipfsuri",
          "type": "string"
        }
      ],
      "name": "registerLand",
      "outputs": [],
      "stateMutability": "nonpayable",
      "type": "function"
    },
    {
      "inputs": [
        {
          "internalType": "string",
          "name": "_fullName",
          "type": "string"
        },
        {
          "internalType": "string",
          "name": "_gender",
          "type": "string"
        },
        {
          "internalType": "string",
          "name": "_email",
          "type": "string"
        },
        {
          "internalType": "string",
          "name": "_contact",
          "type": "string"
        },
        {
          "internalType": "string",
          "name": "_residentialAddr",
          "type": "string"
        }
      ],
      "name": "setUserProfile",
      "outputs": [],
      "stateMutability": "nonpayable",
      "type": "function"
    },
    {
      "inputs": [
        {
          "internalType": "uint256",
          "name": "indexNo",
          "type": "uint256"
        }
      ],
      "name": "markMyPropertyAvailable",
      "outputs": [],
      "stateMutability": "nonpayable",
      "type": "function"
    },
    {
      "inputs": [
        {
          "internalType": "string",
          "name": "_state",
          "type": "string"
        },
        {
          "internalType": "string",
          "name": "_district",
          "type": "string"
        },
        {
          "internalType": "string",
          "name": "_city",
          "type": "string"
        },
        {
          "internalType": "uint256",
          "name": "_surveyNo",
          "type": "uint256"
        },
        {
          "internalType": "uint256",
          "name": "_BidAmount",
          "type": "uint256"
        },
        {
          "internalType": "string",
          "name": "_FileURI",
          "type": "string"
        }
      ],
      "name": "RequestForBuy",
      "outputs": [],
      "stateMutability": "nonpayable",
      "type": "function"
    },
    {
      "inputs": [
        {
          "internalType": "uint256",
          "name": "_index",
          "type": "uint256"
        },
        {
          "internalType": "uint256",
          "name": "_reqNo",
          "type": "uint256"
        }
      ],
      "name": "AcceptRequest",
      "outputs": [],
      "stateMutability": "nonpayable",
      "type": "function"
    },
    {
      "inputs": [
        {
          "internalType": "string",
          "name": "_state",
          "type": "string"
        },
        {
          "internalType": "string",
          "name": "_district",
          "type": "string"
        },
        {
          "internalType": "string",
          "name": "_city",
          "type": "string"
        },
        {
          "internalType": "uint256",
          "name": "_surveyNo",
          "type": "uint256"
        }
      ],
      "name": "getLandDetails",
      "outputs": [
        {
          "internalType": "address",
          "name": "",
          "type": "address"
        },
        {
          "internalType": "uint256",
          "name": "",
          "type": "uint256"
        },
        {
          "internalType": "uint256",
          "name": "",
          "type": "uint256"
        },
        {
          "internalType": "uint256",
          "name": "",
          "type": "uint256"
        },
        {
          "internalType": "string",
          "name": "",
          "type": "string"
        },
        {
          "internalType": "string",
          "name": "",
          "type": "string"
        },
        {
          "internalType": "string",
          "name": "",
          "type": "string"
        }
      ],
      "stateMutability": "view",
      "type": "function",
      "constant": true
    },
    {
      "inputs": [
        {
          "internalType": "string",
          "name": "_state",
          "type": "string"
        },
        {
          "internalType": "string",
          "name": "_district",
          "type": "string"
        },
        {
          "internalType": "string",
          "name": "_city",
          "type": "string"
        },
        {
          "internalType": "uint256",
          "name": "_surveyNo",
          "type": "uint256"
        }
      ],
      "name": "getRequestCnt_propId",
      "outputs": [
        {
          "internalType": "uint256",
          "name": "",
          "type": "uint256"
        },
        {
          "internalType": "uint256",
          "name": "",
          "type": "uint256"
        }
      ],
      "stateMutability": "view",
      "type": "function",
      "constant": true
    },
    {
      "inputs": [
        {
          "internalType": "string",
          "name": "_state",
          "type": "string"
        },
        {
          "internalType": "string",
          "name": "_district",
          "type": "string"
        },
        {
          "internalType": "string",
          "name": "_city",
          "type": "string"
        },
        {
          "internalType": "uint256",
          "name": "_surveyNo",
          "type": "uint256"
        },
        {
          "internalType": "uint256",
          "name": "_reqIndex",
          "type": "uint256"
        }
      ],
      "name": "getRequesterDetail",
      "outputs": [
        {
          "internalType": "address",
          "name": "",
          "type": "address"
        }
      ],
      "stateMutability": "view",
      "type": "function",
      "constant": true
    },
    {
      "inputs": [
        {
          "internalType": "string",
          "name": "_state",
          "type": "string"
        },
        {
          "internalType": "string",
          "name": "_district",
          "type": "string"
        },
        {
          "internalType": "string",
          "name": "_city",
          "type": "string"
        },
        {
          "internalType": "uint256",
          "name": "_surveyNo",
          "type": "uint256"
        },
        {
          "internalType": "uint256",
          "name": "_reqIndex",
          "type": "uint256"
        }
      ],
      "name": "getRequesterBidAmount",
      "outputs": [
        {
          "internalType": "uint256",
          "name": "",
          "type": "uint256"
        }
      ],
      "stateMutability": "view",
      "type": "function",
      "constant": true
    },
    {
      "inputs": [
        {
          "internalType": "string",
          "name": "_state",
          "type": "string"
        },
        {
          "internalType": "string",
          "name": "_district",
          "type": "string"
        },
        {
          "internalType": "string",
          "name": "_city",
          "type": "string"
        },
        {
          "internalType": "uint256",
          "name": "_surveyNo",
          "type": "uint256"
        },
        {
          "internalType": "uint256",
          "name": "_reqIndex",
          "type": "uint256"
        }
      ],
      "name": "getRequesterFileURI",
      "outputs": [
        {
          "internalType": "string",
          "name": "",
          "type": "string"
        }
      ],
      "stateMutability": "view",
      "type": "function",
      "constant": true
    },
    {
      "inputs": [
        {
          "internalType": "string",
          "name": "_state",
          "type": "string"
        },
        {
          "internalType": "string",
          "name": "_district",
          "type": "string"
        },
        {
          "internalType": "string",
          "name": "_city",
          "type": "string"
        },
        {
          "internalType": "uint256",
          "name": "_surveyNo",
          "type": "uint256"
        },
        {
          "internalType": "uint256",
          "name": "_reqIndex",
          "type": "uint256"
        }
      ],
      "name": "getRequesterName",
      "outputs": [
        {
          "internalType": "string",
          "name": "",
          "type": "string"
        }
      ],
      "stateMutability": "view",
      "type": "function",
      "constant": true
    },
    {
      "inputs": [
        {
          "internalType": "string",
          "name": "_state",
          "type": "string"
        },
        {
          "internalType": "string",
          "name": "_district",
          "type": "string"
        },
        {
          "internalType": "string",
          "name": "_city",
          "type": "string"
        },
        {
          "internalType": "uint256",
          "name": "_surveyNo",
          "type": "uint256"
        }
      ],
      "name": "isAvailable",
      "outputs": [
        {
          "internalType": "bool",
          "name": "",
          "type": "bool"
        }
      ],
      "stateMutability": "view",
      "type": "function",
      "constant": true
    },
    {
      "inputs": [
        {
          "internalType": "uint256",
          "name": "indx",
          "type": "uint256"
        }
      ],
      "name": "getOwnerOwns",
      "outputs": [
        {
          "internalType": "string",
          "name": "",
          "type": "string"
        },
        {
          "internalType": "string",
          "name": "",
          "type": "string"
        },
        {
          "internalType": "string",
          "name": "",
          "type": "string"
        },
        {
          "internalType": "uint256",
          "name": "",
          "type": "uint256"
        }
      ],
      "stateMutability": "view",
      "type": "function",
      "constant": true
    },
    {
      "inputs": [
        {
          "internalType": "uint256",
          "name": "indx",
          "type": "uint256"
        }
      ],
      "name": "getAdminOwns",
      "outputs": [
        {
          "internalType": "string",
          "name": "",
          "type": "string"
        },
        {
          "internalType": "string",
          "name": "",
          "type": "string"
        },
        {
          "internalType": "string",
          "name": "",
          "type": "string"
        },
        {
          "internalType": "uint256",
          "name": "",
          "type": "uint256"
        }
      ],
      "stateMutability": "view",
      "type": "function",
      "constant": true
    },
    {
      "inputs": [
        {
          "internalType": "uint256",
          "name": "indx",
          "type": "uint256"
        }
      ],
      "name": "getRequestedLands",
      "outputs": [
        {
          "internalType": "string",
          "name": "",
          "type": "string"
        },
        {
          "internalType": "string",
          "name": "",
          "type": "string"
        },
        {
          "internalType": "string",
          "name": "",
          "type": "string"
        },
        {
          "internalType": "uint256",
          "name": "",
          "type": "uint256"
        }
      ],
      "stateMutability": "view",
      "type": "function",
      "constant": true
    },
    {
      "inputs": [],
      "name": "getUserProfile",
      "outputs": [
        {
          "internalType": "string",
          "name": "",
          "type": "string"
        },
        {
          "internalType": "string",
          "name": "",
          "type": "string"
        },
        {
          "internalType": "string",
          "name": "",
          "type": "string"
        },
        {
          "internalType": "string",
          "name": "",
          "type": "string"
        },
        {
          "internalType": "string",
          "name": "",
          "type": "string"
        }
      ],
      "stateMutability": "view",
      "type": "function",
      "constant": true
    },
    {
      "inputs": [
        {
          "internalType": "address",
          "name": "_addr",
          "type": "address"
        }
      ],
      "name": "getUserName",
      "outputs": [
        {
          "internalType": "string",
          "name": "",
          "type": "string"
        }
      ],
      "stateMutability": "view",
      "type": "function",
      "constant": true
    },
    {
      "inputs": [
        {
          "internalType": "address",
          "name": "_addr",
          "type": "address"
        }
      ],
      "name": "getestablishYear",
      "outputs": [
        {
          "internalType": "string",
          "name": "",
          "type": "string"
        }
      ],
      "stateMutability": "view",
      "type": "function",
      "constant": true
    },
    {
      "inputs": [],
      "name": "getIndices",
      "outputs": [
        {
          "internalType": "uint256",
          "name": "",
          "type": "uint256"
        },
        {
          "internalType": "uint256",
          "name": "",
          "type": "uint256"
        }
      ],
      "stateMutability": "view",
      "type": "function",
      "constant": true
    },
    {
      "inputs": [
        {
          "internalType": "string",
          "name": "_state",
          "type": "string"
        },
        {
          "internalType": "string",
          "name": "_district",
          "type": "string"
        },
        {
          "internalType": "string",
          "name": "_city",
          "type": "string"
        },
        {
          "internalType": "uint256",
          "name": "_surveyNo",
          "type": "uint256"
        }
      ],
      "name": "didIRequested",
      "outputs": [
        {
          "internalType": "bool",
          "name": "",
          "type": "bool"
        }
      ],
      "stateMutability": "view",
      "type": "function",
      "constant": true
    },
    {
      "inputs": [],
      "name": "getTotalTendors",
      "outputs": [
        {
          "internalType": "uint256",
          "name": "",
          "type": "uint256"
        }
      ],
      "stateMutability": "view",
      "type": "function",
      "constant": true
    }
  ],
  "bytecode": "0x6080806040523461002e576103e860035560008054600160a060020a03191633179055614b0f90816100348239f35b600080fdfe6080604052600436101561001257600080fd5b7c01000000000000000000000000000000000000000000000000000000006000350480630e2279af1461450a5780631555ff1e146143ef5780631c8e8962146143ac578063253bc13c1461436f57806327e30c36146142e257806329575f6a146142bb5780632ca305f3146142205780633bbd43b3146141da578063429b62e51461414257806344e0573414613fc65780635863056d14613f905780636d1b9a8e14613ef55780636f61c74414613e0c578063757612ef1461348a57806379ecc8cb146116fc5780638b5bcc3d146133d257806398faad55146133b4578063992369da14613374578063a10da96614613334578063a3743d5c14612730578063aa9c0dcd14612173578063abb5cd051461211c578063b6db75a014612101578063d06efd671461208b578063d1dbeff214612017578063d41cc5c814611794578063d44cafa51461171a578063d67b6628146116fc578063d84f55ee146116ab578063d975f5f014611088578063dd7cee491461056e578063e331ad7c14610330578063e7217f1614610315578063eaec23fa146102ef578063eb68048b146102d1578063f70e8d441461027f5763fc47f57d146101cf57600080fd5b3461027a5760208060031936011261027a57600435336000526007825260406000208160005282526102766040600020543360005260078452604060002083600052845261022360016040600020016145ce565b923360005260078552604060002081600052855261024760026040600020016145ce565b9433600052600781526040600020916000525261026a60036040600020016145ce565b6040519485948561487a565b0390f35b600080fd5b3461027a576102a26102a26102a8610296366148ab565b969291939590956147b3565b906147d9565b90600052602052600b604060002001906000526020526020600260406000200154604051908152f35b3461027a57600036600319011261027a576020600154604051908152f35b3461027a57602061030b61030236614750565b92919091614a55565b6040519015158152f35b3461027a57600036600319011261027a57602061030b614a2f565b3461027a5761033e36614750565b919260405190805160209586830191610358818685614672565b84019387816009968781520301902061037190826147d9565b61037b90866147d9565b866000528752604060002054600160a060020a031695604051888186516103a3818389614672565b8101888152030190206103b690836147d9565b6103c090876147d9565b81600052885260406000206005015495604051898187516103e281838a614672565b8101898152030190206103f590846147d9565b6103ff90826147d9565b826000528952604060002060070154926040518a81885161042181838b614672565b81018a81520301902061043490826147d9565b61043e90836147d9565b836000528a528660406000200154946040518b81895161045f818387614672565b81018b81520301902061047290836147d9565b61047c90846147d9565b846000528b528a6040600020600201610494906145ce565b97604051828183516104a7818389614672565b81018d8152030190206104ba90856147d9565b6104c490866147d9565b86600052825260406000206001016104db906145ce565b99604051809481935180926104ef92614672565b820190815203019020610501916147d9565b61050a916147d9565b9060005287526040600020600401610521906145ce565b946040519788978852870152604086015260608501526080840160e0905260e0840161054c91614695565b83810360a085015261055d91614695565b82810360c084015261027691614695565b3461027a5761014036600319011261027a5760043567ffffffffffffffff811161027a576105a09036906004016146f9565b60243567ffffffffffffffff811161027a576105c09036906004016146f9565b9060443567ffffffffffffffff811161027a576105e19036906004016146f9565b60a43591600160a060020a0393848416840361027a5760e43567ffffffffffffffff811161027a576106179036906004016146f9565b916101043567ffffffffffffffff811161027a576106399036906004016146f9565b6101243567ffffffffffffffff811161027a5761065a9036906004016146f9565b33600052600460205233886040600020541603611041573360005260046020526106986106a6600360406000200160405192839160208301906149ab565b03601f1981018352826145ac565b6020815191012060405160208101906106d760208288516106ca8187858d01614672565b81010380845201826145ac565b5190201480610fef575b80610f9d575b15610f305761071d61071760405160208187516107078183858c01614672565b81016009815203019020866147d9565b876147d9565b600354908160005260205260ff60086040600020015416610ec35761076961076360405160208188516107538183858d01614672565b81016009815203019020876147d9565b886147d9565b906000526020526040600020913360005260066020526040600020600a602052600660406000200154600052602052604060002095600a602052600160a060020a03198a8a168186541617855560038501903390825416179055600354806005860155600685015589891660005260066040600020015460078501556008840160ff199060018282541617905560c43560098601556001600a86019182541617905580519067ffffffffffffffff8211610b395761082a600286015461456e565b601f8111610e8d575b50602090601f8311600114610e1a57610867929160009183610e0f575b5050816002029160080260020a6000190419161790565b60028401555b80519067ffffffffffffffff8211610b395761088c600185015461456e565b601f8111610dd9575b50602090601f8311600114610d66576108c8929160009183610cb2575050816002029160080260020a6000190419161790565b60018301555b80519067ffffffffffffffff8211610b39576108ed600484015461456e565b601f8111610d30575b50602090601f8311600114610cbd57918061092c92600494600092610cb2575050816002029160080260020a6000190419161790565b9101555b600354835580519067ffffffffffffffff8211610b3957610954600185015461456e565b601f8111610c7c575b50602090601f8311600114610c0957610990929160009183610b52575050816002029160080260020a6000190419161790565b60018301555b80519067ffffffffffffffff8211610b39576109b5600284015461456e565b601f8111610bd3575b50602090601f8311600114610b5d5791806109f59260039594600092610b52575050816002029160080260020a6000190419161790565b60028201555b019080519067ffffffffffffffff8211610b3957610a19835461456e565b601f8111610afb575b50602090601f8311600114610a9057610a55929160009183610a85575050816002029160080260020a6000190419161790565b90555b16600052600a6020526006604060002001610a738154614912565b9055610a80600354614912565b600355005b015190508680610850565b90601f198316918460005260206000209260005b818110610ae357509160029391856001969410610ac8575b50505002019055610a58565b01516008601f841602840a6000190419169055868080610abc565b92936020600181928786015181550195019301610aa4565b610b29908460005260206000206020601f86010481019160208610610b2f575b601f60209101040190614921565b85610a22565b9091508190610b1b565b60e060020a634e487b7102600052604160045260246000fd5b015190508880610850565b906002840160005260206000209160005b601f1985168110610bbb5750926001926002926003969583601f19811610610ba0575b505050020160028201556109fb565b01516008601f841602840a6000190419169055888080610b91565b91926020600181928685015181550194019201610b6e565b610c03906002850160005260206000206020601f86010481019160208610610b2f57601f60209101040190614921565b866109be565b906001850160005260206000209160005b601f1985168110610c645750918391600293600195601f19811610610c49575b50505002016001830155610996565b01516008601f841602840a6000190419169055888080610c3a565b91926020600181928685015181550194019201610c1a565b610cac906001860160005260206000206020601f86010481019160208610610b2f57601f60209101040190614921565b8761095d565b015190508b80610850565b906004840160005260206000209160005b601f1985168110610d1857509260019260029260049583601f19811610610cfd575b5050500201910155610930565b01516008601f841602840a60001904191690558b8080610cf0565b91926020600181928685015181550194019201610cce565b610d60906004850160005260206000206020601f86010481019160208610610b2f57601f60209101040190614921565b896108f6565b906001850160005260206000209160005b601f1985168110610dc15750918391600293600195601f19811610610da6575b505050020160018301556108ce565b01516008601f841602840a60001904191690558b8080610d97565b91926020600181928685015181550194019201610d77565b610e09906001860160005260206000206020601f86010481019160208610610b2f57601f60209101040190614921565b8a610895565b015190508c80610850565b906002860160005260206000209160005b601f1985168110610e755750918391600293600195601f19811610610e5a575b5050500201600284015561086d565b01516008601f841602840a60001904191690558c8080610e4b565b91926020600181928685015181550194019201610e2b565b610ebd906002870160005260206000206020601f86010481019160208610610b2f57601f60209101040190614921565b8b610833565b608460405160e560020a62461bcd02815260206004820152602160248201527f537572766579204e756d62657220616c7265616479207265676973746572656460448201527f21000000000000000000000000000000000000000000000000000000000000006064820152fd5b608460405160e560020a62461bcd02815260206004820152602a60248201527f41646d696e2063616e206f6e6c79207265676973746572206c616e64206f662060448201527f73616d6520636974792e000000000000000000000000000000000000000000006064820152fd5b503360005260046020526001604060002001604051610fc4816106986020820180956149ab565b5190206040516020810190610fe6602082816106ca8d87815193849201614672565b519020146106e7565b503360005260046020526002604060002001604051611016816106986020820180956149ab565b5190206040516020810190611038602082816106ca8b87815193849201614672565b519020146106e1565b606460405160e560020a62461bcd02815260206004820152601c60248201527f4f6e6c792061646d696e2063616e205265676973746572206c616e64000000006044820152fd5b3461027a5760c036600319011261027a5760043567ffffffffffffffff811161027a576110b99036906004016146f9565b60243567ffffffffffffffff811161027a576110d99036906004016146f9565b9060443567ffffffffffffffff811161027a576110fa9036906004016146f9565b9060a43567ffffffffffffffff811161027a5761111b9036906004016146f9565b61113c61113660405160208186516107078183858b01614672565b846147d9565b606435600052602052604060002090600160ff600a8401541615150361163e57600c82015490600b83018260005280602052604060002033600160a060020a031982541617905533600052600a602052600760406000200154926000526020526040600020916001830155608435600283015580519067ffffffffffffffff8211610b39576111ce600384015461456e565b601f8111611608575b50602090601f831160011461159557918061120d9260039460009261158a575050816002029160080260020a6000190419161790565b9101555b600c61121f81830154614912565b9101553360005260086020526040600020600a602052600760406000200154600052602052604060002090606435825580519067ffffffffffffffff8211610b395761126e600184015461456e565b601f8111611554575b50602090601f83116001146114e1576112aa929160009183610a85575050816002029160080260020a6000190419161790565b60018201555b60028101835167ffffffffffffffff8111610b39576112cf825461456e565b601f81116114ae575b506020601f821160011461144157908061130e9260039697600092611436575050816002029160080260020a6000190419161790565b90555b019080519067ffffffffffffffff8211610b395761132f835461456e565b601f8111611403575b50602090601f83116001146113985761136b92916000918361138d575050816002029160080260020a6000190419161790565b90555b33600052600a60205260076040600020016113898154614912565b9055005b015190508480610850565b90601f198316918460005260206000209260005b8181106113eb575091600293918560019694106113d0575b5050500201905561136e565b01516008601f841602840a60001904191690558480806113c4565b929360206001819287860151815501950193016113ac565b611430908460005260206000206020601f86010481019160208610610b2f57601f60209101040190614921565b83611338565b015190508780610850565b601f198216958360005260206000209660005b81811061149657509660029284926001956003999a1061147b575b50505002019055611311565b01516008601f841602840a600019041916905587808061146f565b83830151895560019098019760209384019301611454565b6114db908360005260206000206020601f85010481019160208510610b2f57601f60209101040190614921565b856112d8565b906001840160005260206000209160005b601f198516811061153c5750918391600293600195601f19811610611521575b505050020160018201556112b0565b01516008601f841602840a6000190419169055868080611512565b919260206001819286850151815501940192016114f2565b611584906001850160005260206000206020601f86010481019160208610610b2f57601f60209101040190614921565b85611277565b015190508980610850565b906003840160005260206000209160005b601f19851681106115f057509260019260029260039583601f198116106115d5575b5050500201910155611211565b01516008601f841602840a60001904191690558980806115c8565b919260206001819286850151815501940192016115a6565b611638906003850160005260206000206020601f86010481019160208610610b2f57601f60209101040190614921565b876111d7565b608460405160e560020a62461bcd02815260206004820152602560248201527f546869732070726f7065727479206973204e4f54206d61726b656420666f722060448201527f73616c65210000000000000000000000000000000000000000000000000000006064820152fd5b3461027a57602036600319011261027a57600160a060020a036116cc614558565b16600052600a6020526102766116e860016040600020016145ce565b604051918291602083526020830190614695565b3461027a57600036600319011261027a576020600354604051908152f35b3461027a57604036600319011261027a57600160a060020a0361173b614558565b16806000526005602052600660406000200154602435810180911161177b5760079160005260056020526040600020906006820155016113898154614912565b60e060020a634e487b7102600052601160045260246000fd5b3461027a57604036600319011261027a5733600090815260066020908152604080832060043580855292529091208054906117d1906001016145ce565b913360005260066020526040600020816000526020526117f760026040600020016145ce565b9033600052600660205260406000209060005260205261181d60036040600020016145ce565b9161184b61113660405160208188516118398183858d01614672565b600981830152810103019020846147d9565b81600052602052600b604060002001602435600052602052600160a060020a0360406000205416926118a66118a0604051602081816118908b83815193849201614672565b81016009815203019020856147d9565b826147d9565b82600052602052600b6040600020016024356000526020526118db6118a0604051602081816118908b83815193849201614672565b82600052602052600c6040600020015461190e611908604051602081816107078c83815193849201614672565b836147d9565b83600052602052600b60406000200160243560005260205261193660036040600020016145ce565b9060005b818110611ed1575050611960611908604051602081816107078c83815193849201614672565b83600052602052604060002085600160a060020a0319825416179055611999611908604051602081816107078c83815193849201614672565b8360005260205260046040600020019080519067ffffffffffffffff8211610b39576119c5835461456e565b601f8111611e9e575b50602090601f8311600114611e3157611a0192916000918361158a575050816002029160080260020a6000190419161790565b90555b611a216118a0604051602081816118908b83815193849201614672565b82600052602052600a60406000200160ff198154169055611a556118a0604051602081816118908b83815193849201614672565b826000526020526000600c60408220015583600052600a602052600660406000200154926006602052604060002084600052602052604060002095838755805167ffffffffffffffff8111610b3957611ab1600189015461456e565b601f8111611dfb575b506020601f8211600114611d8b579080611aec92600091611d80575b50816002029160080260020a6000190419161790565b60018801555b815167ffffffffffffffff8111610b3957611b10600289015461456e565b601f8111611d4a575b506020601f8211600114611cda579080611b4a92600091611ccf5750816002029160080260020a6000190419161790565b60028801555b82519667ffffffffffffffff8811610b3957611b6f600382015461456e565b601f8111611c99575b50602097601f8111600114611c19576102a29392611bd4926003611bbd84602095611be49b9c9d9e600091611c0e5750816002029160080260020a6000190419161790565b9101555b8160405193828580945193849201614672565b81016009815203019020906147d9565b90600052602052600760406000200155600052600a60205260066040600020016113898154614912565b90508a01518f611ad6565b60038201600052602060002060005b601f1983168110611c81575092611bd492600360016002856102a29998611be49c9d9e9f602098601f19811610611c66575b50500201910155611bc1565b8c01516008601f841602840a60001904191690558f80611c5a565b868b0151825560209a8b019a60019092019101611c28565b611cc9906003830160005260206000206020601f8c010481019160208c10610b2f57601f60209101040190614921565b88611b78565b90508401518a611ad6565b6002890160005260206000209060005b601f1984168110611d3257509160029160019382601f19811610611d17575b505002016002880155611b50565b8601516008601f841602840a60001904191690558a80611d09565b90916020600181928589015181550193019101611cea565b611d7a9060028a0160005260206000206020601f85010481019160208510610b2f57601f60209101040190614921565b88611b19565b90508301518a611ad6565b6001890160005260206000209060005b601f1984168110611de357509160029160019382601f19811610611dc8575b505002016001880155611af2565b8501516008601f841602840a60001904191690558a80611dba565b90916020600181928588015181550193019101611d9b565b611e2b9060018a0160005260206000206020601f85010481019160208510610b2f57601f60209101040190614921565b88611aba565b908360005260206000209160005b601f1985168110611e865750918391600293600195601f19811610611e6b575b50505002019055611a04565b01516008601f841602840a6000190419169055898080611e5f565b91926020600181928685015181550194019201611e3f565b611ecb908460005260206000206020601f86010481019160208610610b2f57601f60209101040190614921565b886119ce565b600190611f09611f03611ef360208c8160405193828580945193849201614672565b81016009815203019020896147d9565b866147d9565b86600052602052600b60406000200181600052602052600160a060020a0360406000205416611f5d610717611f4d60208d8160405193828580945193849201614672565b810160098152030190208a6147d9565b87600052602052600b604060002001826000526020528260406000200154906000526008602052604060002090600052602052611fbb6003604060002060008155611fa9858201614963565b611fb560028201614963565b01614963565b611fda611f03611ef360208c8160405193828580945193849201614672565b86600052602052600b6040600020018160005260205261201160036040600020600081556000858201556000600282015501614963565b0161193a565b3461027a57604036600319011261027a57600160a060020a03612038614558565b166000526006602052604060002060243560005260205260406000208054610276612065600184016145ce565b9261207e6003612077600284016145ce565b92016145ce565b90604051948594856146ba565b3461027a5760406120e861209e36614750565b919293906102a2865194611bd48780516120c96107178a6020809c8180970195610707818389614672565b886000528252600c8b6000200154998b51938492839251928391614672565b9060005281526005836000200154908351928352820152f35b3461027a57600036600319011261027a57602061030b614938565b3461027a576102a26102a2612133610296366148ab565b90600052602052600b60406000200190600052602052600160a060020a0360406000205416600052600a6020526102766116e860016040600020016145ce565b3461027a5760a036600319011261027a5767ffffffffffffffff60043581811161027a576121a59036906004016146f9565b602491823581811161027a576121bf9036906004016146f9565b9160443582811161027a576121d89036906004016146f9565b60643583811161027a576121f09036906004016146f9565b9360843584811161027a576122099036906004016146f9565b9433600052602090600a825260406000209060019485830187518981116125cf57612234825461456e565b98601f998a8111612704575b5086908a831160011461269d576122719291600091836125e7575050816002029160080260020a6000190419161790565b90555b600294858401908051908a82116126855761228f835461456e565b8a8111612659575b5086908a83116001146125f2576122c89291600091836125e7575050816002029160080260020a6000190419161790565b90555b805160038401918982116125cf576122e3835461456e565b8981116125a3575b50859089831160011461253c5761231c929160009183612481575050816002029160080260020a6000190419161790565b90555b8051600483019188821161252457612337835461456e565b8881116124f8575b50849088831160011461248c579180612375926005969594600092612481575050816002029160080260020a6000190419161790565b90555b0196865195861161246a575061238e875461456e565b848111612434575b5080938086116001146123cb575050505081906113899360009261138d575050816002029160080260020a6000190419161790565b91949390929584601f1981168960005285600020956000905b8a83831061241a57505050106123ff575b5050505002019055005b0151908316600802840a6000190419169055848080806123f5565b8587015189559097019694850194889350908101906123e4565b61245b908860005282600020838781818b0104830193828b10612461575b01040190614921565b87612396565b93508293612452565b60e060020a634e487b710260005260416004526000fd5b015190508d80610850565b87919493928791601f1982169685600052886000209160005b8a8a82106124df57505083600599106124c5575b50505002019055612378565b01516008838d1602840a60001904191690558d80806124b9565b8383015185558d978d97509094019392830192016124a5565b61251e908460005286600020878b81818801048301938288106124615701040190614921565b8b61233f565b8a60e060020a634e487b710260005260416004526000fd5b9188928892601f1983169186600052896000209260005b8b82821061258a5750508411612570575b5050500201905561231f565b01516008838d1602840a60001904191690558d8080612564565b8484015186558e988e9850909501949384019301612553565b6125c9908460005287600020888c81818801048301938288106124615701040190614921565b8c6122eb565b8b60e060020a634e487b710260005260416004526000fd5b015190508e80610850565b9189928992601f19831691866000528a6000209260005b8c8282106126405750508411612626575b505050020190556122cb565b01516008838e1602840a60001904191690558e808061261a565b8484015186558f988f9850909501949384019301612609565b61267f908460005288600020898d81818801048301938288106124615701040190614921565b8d612297565b8c60e060020a634e487b710260005260416004526000fd5b918991601f1982169085600052896000209160005b8b8282106126ee575050948360029596106126d4575b50505002019055612274565b01516008838e1602840a60001904191690558e80806126c8565b8388015185558e969094019392830192016126b2565b61272a908460005288600020898d81818801048301938288106124615701040190614921565b8d612240565b3461027a5761016036600319011261027a5761274a614558565b60243567ffffffffffffffff811161027a5761276a9036906004016146f9565b9060443567ffffffffffffffff811161027a5761278b9036906004016146f9565b9060643567ffffffffffffffff811161027a576127ac9036906004016146f9565b60843567ffffffffffffffff811161027a576127cc9036906004016146f9565b9160a43567ffffffffffffffff811161027a576127ed9036906004016146f9565b9060c43567ffffffffffffffff811161027a5761280e9036906004016146f9565b9260e43567ffffffffffffffff811161027a5761282f9036906004016146f9565b966101043567ffffffffffffffff811161027a576128519036906004016146f9565b966101243567ffffffffffffffff811161027a576128739036906004016146f9565b916101443567ffffffffffffffff811161027a576128959036906004016146f9565b91600160a060020a03861660005260056020526040600020946128b9600254614912565b600255855473ffffffffffffffffffffffffffffffffffffffff1916600160a060020a03881617865580519067ffffffffffffffff8211610b3957612901600188015461456e565b601f81116132fe575b50602090601f831160011461328b5761293d9291600091836125e7575050816002029160080260020a6000190419161790565b60018601555b80519067ffffffffffffffff8211610b3957612962600287015461456e565b601f8111613255575b50602090601f83116001146131e25761299e929160009183612481575050816002029160080260020a6000190419161790565b60028501555b80519067ffffffffffffffff8211610b39576129c3600386015461456e565b601f81116131ac575b50602090601f8311600114613139576129ff929160009183610e0f575050816002029160080260020a6000190419161790565b60038401555b600560068401556001600784015580519067ffffffffffffffff8211610b3957612a32600585015461456e565b601f8111613103575b50602090601f831160011461309057612a6e929160009183610cb2575050816002029160080260020a6000190419161790565b60058301555b80519067ffffffffffffffff8211610b3957612a93600484015461456e565b601f811161305a575b50602090601f8311600114612fdd5782600160a060020a03959493600493612adc93600092610e0f575050816002029160080260020a6000190419161790565b9101555b16600052600a602052604060002092600184019080519067ffffffffffffffff8211610b3957612b10835461456e565b601f8111612faa575b50602090601f8311600114612f3f57612b4c92916000918361158a575050816002029160080260020a6000190419161790565b90555b8051600284019167ffffffffffffffff8211610b3957612b6f835461456e565b601f8111612f0c575b50602090601f8311600114612ea157612bab929160009183610b52575050816002029160080260020a6000190419161790565b90555b8051600383019167ffffffffffffffff8211610b3957612bce835461456e565b601f8111612e6e575b50602090601f8311600114612e0357612c0a929160009183611436575050816002029160080260020a6000190419161790565b90555b60048101835167ffffffffffffffff8111610b3957612c2c825461456e565b601f8111612dd0575b506020601f8211600114612d63579080612c6b9260059697600092611436575050816002029160080260020a6000190419161790565b90555b019080519067ffffffffffffffff8211610b3957612c8c835461456e565b601f8111612d30575b50602090601f8311600114612cc85761138992916000918361138d575050816002029160080260020a6000190419161790565b90601f198316918460005260206000209260005b818110612d1857509160029391856001969410612cfd575b50505002019055005b01516008601f841602840a6000190419169055848080612cf4565b92936020600181928786015181550195019301612cdc565b612d5d908460005260206000206020601f86010481019160208610610b2f57601f60209101040190614921565b83612c95565b601f198216958360005260206000209660005b818110612db857509660029284926001956005999a10612d9d575b50505002019055612c6e565b01516008601f841602840a6000190419169055878080612d91565b83830151895560019098019760209384019301612d76565b612dfd908360005260206000206020601f85010481019160208510610b2f57601f60209101040190614921565b85612c35565b90601f198316918460005260206000209260005b818110612e5657509160029391856001969410612e3b575b50505002019055612c0d565b01516008601f841602840a6000190419169055878080612e2f565b92936020600181928786015181550195019301612e17565b612e9b908460005260206000206020601f86010481019160208610610b2f57601f60209101040190614921565b86612bd7565b90601f198316918460005260206000209260005b818110612ef457509160029391856001969410612ed9575b50505002019055612bae565b01516008601f841602840a6000190419169055888080612ecd565b92936020600181928786015181550195019301612eb5565b612f39908460005260206000206020601f86010481019160208610610b2f57601f60209101040190614921565b87612b78565b90601f198316918460005260206000209260005b818110612f9257509160029391856001969410612f77575b50505002019055612b4f565b01516008601f841602840a6000190419169055898080612f6b565b92936020600181928786015181550195019301612f53565b612fd7908460005260206000206020601f86010481019160208610610b2f57601f60209101040190614921565b88612b19565b906004840160005260206000209160005b601f1985168110613042575083600493600193600293600160a060020a03999897601f19811610613027575b5050500201910155612ae0565b01516008601f841602840a60001904191690558c808061301a565b91926020600181928685015181550194019201612fee565b61308a906004850160005260206000206020601f86010481019160208610610b2f57601f60209101040190614921565b89612a9c565b906005850160005260206000209160005b601f19851681106130eb5750918391600293600195601f198116106130d0575b50505002016005830155612a74565b01516008601f841602840a60001904191690558b80806130c1565b919260206001819286850151815501940192016130a1565b613133906005860160005260206000206020601f86010481019160208610610b2f57601f60209101040190614921565b8a612a3b565b906003860160005260206000209160005b601f19851681106131945750918391600293600195601f19811610613179575b50505002016003840155612a05565b01516008601f841602840a60001904191690558c808061316a565b9192602060018192868501518155019401920161314a565b6131dc906003870160005260206000206020601f86010481019160208610610b2f57601f60209101040190614921565b8b6129cc565b906002870160005260206000209160005b601f198516811061323d5750918391600293600195601f19811610613222575b505050020160028501556129a4565b01516008601f841602840a60001904191690558d8080613213565b919260206001819286850151815501940192016131f3565b613285906002880160005260206000206020601f86010481019160208610610b2f57601f60209101040190614921565b8c61296b565b906001880160005260206000209160005b601f19851681106132e65750918391600293600195601f198116106132cb575b50505002016001860155612943565b01516008601f841602840a60001904191690558e80806132bc565b9192602060018192868501518155019401920161329c565b61332e906001890160005260206000206020601f86010481019160208610610b2f57601f60209101040190614921565b8d61290a565b3461027a576102a26102a261334b610296366148ab565b90600052602052600b604060002001906000526020526102766116e860036040600020016145ce565b3461027a576102a26133956102a261338b36614750565b95929390936147b3565b90600052602052602060ff600a60406000200154166040519015158152f35b3461027a57600036600319011261027a576020600254604051908152f35b3461027a57604036600319011261027a576133eb614558565b600160a060020a0380911660005260076020526040600020602435600052602052604060002090815490613480613424600185016145ce565b93613472613434600283016145ce565b936004613443600385016145ce565b9301541693613464604051978897885260a0602089015260a0880190614695565b908682036040880152614695565b908482036060860152614695565b9060808301520390f35b3461027a5761012036600319011261027a576134a4614558565b60243567ffffffffffffffff811161027a576134c49036906004016146f9565b9060443567ffffffffffffffff811161027a576134e59036906004016146f9565b9060643567ffffffffffffffff811161027a576135069036906004016146f9565b60843567ffffffffffffffff811161027a576135269036906004016146f9565b9160a43567ffffffffffffffff811161027a576135479036906004016146f9565b9060c43567ffffffffffffffff811161027a576135689036906004016146f9565b9260e43567ffffffffffffffff811161027a576135899036906004016146f9565b966101043567ffffffffffffffff811161027a576135ab9036906004016146f9565b96600160a060020a03841660005260046020526040600020926135cf600154614912565b600155835473ffffffffffffffffffffffffffffffffffffffff1916600160a060020a03861617845580519067ffffffffffffffff8211610b3957613617600186015461456e565b601f8111613dd6575b50602090601f8311600114613d6357613653929160009183610e0f575050816002029160080260020a6000190419161790565b60018401555b80519067ffffffffffffffff8211610b3957613678600285015461456e565b601f8111613d2d575b50602090601f8311600114613cba576136b4929160009183610cb2575050816002029160080260020a6000190419161790565b60028301555b80519067ffffffffffffffff8211610b39576136d9600384015461456e565b601f8111613c84575b50602090601f8311600114613c075782600160a060020a0395949360039361372293600092610e0f575050816002029160080260020a6000190419161790565b9101555b16600052600a602052604060002092600184019080519067ffffffffffffffff8211610b3957613756835461456e565b601f8111613bd4575b50602090601f8311600114613b695761379292916000918361158a575050816002029160080260020a6000190419161790565b90555b8051600284019167ffffffffffffffff8211610b39576137b5835461456e565b601f8111613b36575b50602090601f8311600114613acb576137f1929160009183610b52575050816002029160080260020a6000190419161790565b90555b8051600383019167ffffffffffffffff8211610b3957613814835461456e565b601f8111613a98575b50602090601f8311600114613a2d57613850929160009183611436575050816002029160080260020a6000190419161790565b90555b60048101835167ffffffffffffffff8111610b3957613872825461456e565b601f81116139fa575b506020601f821160011461398d5790806138b19260059697600092611436575050816002029160080260020a6000190419161790565b90555b019080519067ffffffffffffffff8211610b39576138d2835461456e565b601f811161395a575b50602090601f831160011461390e5761138992916000918361138d575050816002029160080260020a6000190419161790565b90601f198316918460005260206000209260005b81811061394257509160029391856001969410612cfd5750505002019055005b92936020600181928786015181550195019301613922565b613987908460005260206000206020601f86010481019160208610610b2f57601f60209101040190614921565b836138db565b601f198216958360005260206000209660005b8181106139e257509660029284926001956005999a106139c7575b505050020190556138b4565b01516008601f841602840a60001904191690558780806139bb565b838301518955600190980197602093840193016139a0565b613a27908360005260206000206020601f85010481019160208510610b2f57601f60209101040190614921565b8561387b565b90601f198316918460005260206000209260005b818110613a8057509160029391856001969410613a65575b50505002019055613853565b01516008601f841602840a6000190419169055878080613a59565b92936020600181928786015181550195019301613a41565b613ac5908460005260206000206020601f86010481019160208610610b2f57601f60209101040190614921565b8661381d565b90601f198316918460005260206000209260005b818110613b1e57509160029391856001969410613b03575b505050020190556137f4565b01516008601f841602840a6000190419169055888080613af7565b92936020600181928786015181550195019301613adf565b613b63908460005260206000206020601f86010481019160208610610b2f57601f60209101040190614921565b876137be565b90601f198316918460005260206000209260005b818110613bbc57509160029391856001969410613ba1575b50505002019055613795565b01516008601f841602840a6000190419169055898080613b95565b92936020600181928786015181550195019301613b7d565b613c01908460005260206000206020601f86010481019160208610610b2f57601f60209101040190614921565b8861375f565b906003840160005260206000209160005b601f1985168110613c6c575083600393600193600293600160a060020a03999897601f19811610613c51575b5050500201910155613726565b01516008601f841602840a60001904191690558c8080613c44565b91926020600181928685015181550194019201613c18565b613cb4906003850160005260206000206020601f86010481019160208610610b2f57601f60209101040190614921565b896136e2565b906002850160005260206000209160005b601f1985168110613d155750918391600293600195601f19811610613cfa575b505050020160028301556136ba565b01516008601f841602840a60001904191690558b8080613ceb565b91926020600181928685015181550194019201613ccb565b613d5d906002860160005260206000206020601f86010481019160208610610b2f57601f60209101040190614921565b8a613681565b906001860160005260206000209160005b601f1985168110613dbe5750918391600293600195601f19811610613da3575b50505002016001840155613659565b01516008601f841602840a60001904191690558c8080613d94565b91926020600181928685015181550194019201613d74565b613e06906001870160005260206000206020601f86010481019160208610610b2f57601f60209101040190614921565b8b613620565b3461027a57600036600319011261027a5733600052613ebe6020600a8152610276613e3d60016040600020016145ce565b9133600052600a8152613ee7613e5960026040600020016145ce565b9133600052600a8152613ed9613e7560036040600020016145ce565b33600052600a8352613ecb613e9060046040600020016145ce565b9333600052600a8152613ea960056040600020016145ce565b966040519a8b9a60a08c5260a08c0190614695565b918a8303908b0152614695565b908782036040890152614695565b908582036060870152614695565b908382036080850152614695565b3461027a5760208060031936011261027a576004353360005260068252604060002081600052825261027660406000205433600052600684526040600020836000528452613f4960016040600020016145ce565b9233600052600685526040600020816000528552613f6d60026040600020016145ce565b9433600052600681526040600020916000525261026a60036040600020016145ce565b3461027a57600036600319011261027a5733600052600a6020526040806000206007600682015491015482519182526020820152f35b3461027a5760208060031936011261027a576004359033600052600681526040600020826000528152613fff60016040600020016145ce565b913360005260068252604060002081600052825261402360026040600020016145ce565b3360005260068352604060002082600052835261404660036040600020016145ce565b9133600052600684526040600020906000528352604060002054936040519061408561407f82519387818186019661189081838a614672565b856147d9565b86600052855260ff600a60406000200154166140d55791611bd4856102a2936140ba9695604051938492839251928391614672565b6000928352905260409020600a01805460ff19166001179055005b6084856040519060e560020a62461bcd0282526004820152602160248201527f50726f706572747920616c7265616479206d61726b656420617661696c61626c60448201527f65000000000000000000000000000000000000000000000000000000000000006064820152fd5b3461027a57602036600319011261027a57600160a060020a0380614164614558565b166000526004602052604060002090815416610276614185600184016145ce565b926141cc6141a1600361419a600285016145ce565b93016145ce565b916141be6040519687968752608060208801526080870190614695565b908582036040870152614695565b908382036060850152614695565b3461027a576102a26102a26141f1610296366148ab565b90600052602052600b604060002001906000526020526020600160a060020a0360406000205416604051908152f35b3461027a5760208060031936011261027a57600435336000526008825260406000208160005282526102766040600020543360005260088452604060002083600052845261427460016040600020016145ce565b923360005260088552604060002081600052855261429860026040600020016145ce565b9433600052600881526040600020916000525261026a60036040600020016145ce565b3461027a57600036600319011261027a576020600160a060020a0360005416604051908152f35b3461027a57602036600319011261027a57600160a060020a0380614304614558565b166000526005602052604060002090815416610276614325600184016145ce565b92614332600282016145ce565b9061433f600382016145ce565b61434b600483016145ce565b614357600584016145ce565b916007600685015494015494604051988998896147ff565b3461027a57602036600319011261027a57600160a060020a03614390614558565b1660005260056020526102766116e860046040600020016145ce565b3461027a57602036600319011261027a57600160a060020a03806143ce614558565b16600052600a602052604060002090815416610276614325600184016145ce565b3461027a57611bd461442160206102a261440836614750565b9691928560409692965193828580945193849201614672565b906000526020526040600020600160a060020a03908181541690614447600182016145ce565b92614454600283016145ce565b9060038301541691614468600482016145ce565b60058201549360068301546007840154906144da60ff600887015416936009870154956144c7600c60ff600a8b015416990154996144b96040519e8f9e8f6101809181528160208201520190614695565b8d810360408f015290614695565b9160608c01528a820360808c0152614695565b9660a089015260c088015260e0870152151561010086015261012085015215156101408401526101608301520390f35b3461027a57604036600319011261027a57600160a060020a0361452b614558565b166000526008602052604060002060243560005260205260406000208054610276612065600184016145ce565b60043590600160a060020a038216820361027a57565b90600160028304921680156145a2575b602083101461458957565b60e060020a634e487b7102600052602260045260246000fd5b91607f169161457e565b90601f8019910116810190811067ffffffffffffffff821117610b3957604052565b906040519182600082546145e18161456e565b908184526020946001916001811690816000146146515750600114614612575b505050614610925003836145ac565b565b600090815285812095935091905b8183106146395750506146109350820101388080614601565b85548884018501529485019487945091830191614620565b9250505061461094925060ff19168284015215158102820101388080614601565b60005b8381106146855750506000910152565b8181015183820152602001614675565b906020916146ae81518092818552858086019101614672565b601f01601f1916010190565b926146da6146f695936146e8938652608060208701526080860190614695565b908482036040860152614695565b916060818403910152614695565b90565b81601f8201121561027a5780359067ffffffffffffffff8211610b39576040519261472e601f8401601f1916602001856145ac565b8284526020838301011161027a57816000926020809301838601378301015290565b608060031982011261027a5767ffffffffffffffff9160043583811161027a578261477d916004016146f9565b9260243581811161027a5783614795916004016146f9565b9260443591821161027a576147ac916004016146f9565b9060643590565b60206147cc918160405193828580945193849201614672565b8101600981520301902090565b6020906147f3928260405194838680955193849201614672565b82019081520301902090565b94906148709461484660e0989561483861486296614854959e9d9c9e600160a060020a0361010091168c528060208d01528b0190614695565b9089820360408b0152614695565b908782036060890152614695565b908582036080870152614695565b9083820360a0850152614695565b9460c08201520152565b9493926134646060936148986148a69460808a5260808a0190614695565b9088820360208a0152614695565b930152565b60a060031982011261027a5767ffffffffffffffff9160043583811161027a57826148d8916004016146f9565b9260243581811161027a57836148f0916004016146f9565b9260443591821161027a57614907916004016146f9565b906064359060843590565b600019811461177b5760010190565b81811061492c575050565b60008155600101614921565b33600052600460205233600160a060020a03604060002054161460001461495e57600190565b600090565b61496d815461456e565b9081614977575050565b81601f60009311600114614989575055565b9080839182526149a76020601f818520950104840160018501614921565b5555565b6000929181546149ba8161456e565b92600191808316908115614a1457506001146149d7575b50505050565b9091929394506000526020906020600020906000915b858310614a0357505050500190388080806149d1565b8054858401529183019181016149ed565b60ff19168452505050811515909102019150388080806149d1565b33600052600560205233600160a060020a03604060002054161460001461495e57600190565b9291614a77906102a26040936040516020818951611bd4818385809e01614672565b60009283526020526040822090600c8201548015614ad15791600b01835b838110614aa55750505050905090565b80855281865233600160a060020a03848720541614614ac657600101614a95565b505050505050600190565b50505090509056fea26469706673582212205a8fa6d3525bafa0ee90deea99177da7a095659a7750ee7a822700faf524f5e764736f6c63430008170033",
  "immutableReferences": {},
  "source": "// SPDX-License-Identifier: MIT\r\n\r\npragma solidity >=0.5.0 <0.9.0;\r\n\r\ncontract Registry {\r\n    address public superAdmin;\r\n    uint256 public totalAdmins;\r\n    uint256 public totalVendors;\r\n    uint256 public totalTendors = 1000;\r\n\r\n    struct Admin {\r\n        address adminAddress;\r\n        string city;\r\n        string district;\r\n        string state;\r\n    }\r\n\r\n    struct Vendor {\r\n        address vendorAddress;\r\n        string city;\r\n        string district;\r\n        string state;\r\n        string year;\r\n        string vendortype;\r\n        uint256 rating;\r\n        uint256 noofRaters;\r\n    }\r\n\r\n    struct LandDetails {\r\n        address owner;\r\n        string tendertype;\r\n        string tenderName;\r\n        address admin;\r\n        string ipfsuri;\r\n        uint256 propertyId;\r\n        uint256 surveyNumber;\r\n        uint256 index;\r\n        bool registered;\r\n        uint256 marketValue;\r\n        bool markAvailable;\r\n        mapping(uint256 => RequestDetails) requests; // reqNo => RequestDetails\r\n        uint256 noOfRequests; // other users requested to this land\r\n    }\r\n\r\n    struct UserProfile {\r\n        address userAddr;\r\n        string fullName;\r\n        string gender;\r\n        string email;\r\n        string contact;\r\n        string residentialAddr;\r\n        uint256 totalIndices;\r\n        uint256 requestIndices; // this user requested to other lands\r\n    }\r\n\r\n    struct OwnerOwns {\r\n        uint256 surveyNumber;\r\n        string state;\r\n        string district;\r\n        string city;\r\n    }\r\n\r\n    struct AdminOwns {\r\n        uint256 surveyNo;\r\n        string state;\r\n        string district;\r\n        string city;\r\n        address AllocatedTo;\r\n    }\r\n\r\n    struct RequestedLands {\r\n        uint256 surveyNumber;\r\n        string state;\r\n        string district;\r\n        string city;\r\n    }\r\n\r\n    struct RequestDetails {\r\n        address whoRequested;\r\n        uint256 reqIndex;\r\n        uint256 BidAmount;\r\n        string FileURI;\r\n    }\r\n\r\n    mapping(address => Admin) public admins;\r\n    mapping(address => Vendor) public vendors;\r\n    mapping(address => mapping(uint256 => OwnerOwns)) public ownerMapsProperty;\r\n    mapping(address => mapping(uint256 => AdminOwns)) public adminMapsProperty; // ownerAddr => index no. => OwnerOwns\r\n    mapping(address => mapping(uint256 => RequestedLands))\r\n        public requestedLands; // ownerAddr => reqIndex => RequestedLands\r\n    mapping(string => mapping(string => mapping(string => mapping(uint256 => LandDetails))))\r\n        public landDetalsMap; // state => district => city => surveyNo => LandDetails\r\n    mapping(address => UserProfile) public userProfile;\r\n\r\n    constructor() {\r\n        superAdmin = msg.sender;\r\n    }\r\n\r\n    modifier onlyAdmin() {\r\n        require(\r\n            admins[msg.sender].adminAddress == msg.sender,\r\n            \"Only admin can Register land\"\r\n        );\r\n        _;\r\n    }\r\n\r\n    // SuperAdmin: Registers new admin\r\n    function addAdmin(\r\n        address _adminAddr,\r\n        string memory _state,\r\n        string memory _district,\r\n        string memory _city,\r\n        string memory _fullName,\r\n        string memory _gender,\r\n        string memory _email,\r\n        string memory _contact,\r\n        string memory _residentialAddr\r\n    ) external {\r\n        Admin storage newAdmin = admins[_adminAddr];\r\n        totalAdmins++;\r\n\r\n        newAdmin.adminAddress = _adminAddr;\r\n        newAdmin.city = _city;\r\n        newAdmin.district = _district;\r\n        newAdmin.state = _state;\r\n\r\n        UserProfile storage newUserProfile = userProfile[_adminAddr];\r\n\r\n        newUserProfile.fullName = _fullName;\r\n        newUserProfile.gender = _gender;\r\n        newUserProfile.email = _email;\r\n        newUserProfile.contact = _contact;\r\n        newUserProfile.residentialAddr = _residentialAddr;\r\n    }\r\n\r\n    function addVendor(\r\n        address _vendorAddr,\r\n        string memory _state,\r\n        string memory _district,\r\n        string memory _city,\r\n        string memory _fullName,\r\n        string memory _gender,\r\n        string memory _email,\r\n        string memory _contact,\r\n        string memory _residentialAddr,\r\n        string memory _year,\r\n        string memory _vendortype\r\n    ) external {\r\n        Vendor storage newVendor = vendors[_vendorAddr];\r\n        totalVendors++;\r\n\r\n        newVendor.vendorAddress = _vendorAddr;\r\n        newVendor.city = _city;\r\n        newVendor.district = _district;\r\n        newVendor.state = _state;\r\n        newVendor.rating = 5;\r\n        newVendor.noofRaters = 1;\r\n        newVendor.vendortype = _vendortype;\r\n        newVendor.year = _year;\r\n\r\n        UserProfile storage newUserProfile = userProfile[_vendorAddr];\r\n\r\n        newUserProfile.fullName = _fullName;\r\n        newUserProfile.gender = _gender;\r\n        newUserProfile.email = _email;\r\n        newUserProfile.contact = _contact;\r\n        newUserProfile.residentialAddr = _residentialAddr;\r\n    }\r\n\r\n    //function Give Rating\r\n    function GiveRating(address _vendortorating, uint256 _ratenumber) public {\r\n        vendors[_vendortorating].rating =\r\n            vendors[_vendortorating].rating +\r\n            _ratenumber;\r\n        vendors[_vendortorating].noofRaters++;\r\n    }\r\n\r\n    // check if it is admin\r\n    function isAdmin() external view returns (bool) {\r\n        if (admins[msg.sender].adminAddress == msg.sender) {\r\n            return true;\r\n        } else return false;\r\n    }\r\n\r\n    //Chekc if it is Vendor\r\n    function isVendor() external view returns (bool) {\r\n        if (vendors[msg.sender].vendorAddress == msg.sender) {\r\n            return true;\r\n        } else return false;\r\n    }\r\n\r\n    // Admin: registers land\r\n    function registerLand(\r\n        string memory _state,\r\n        string memory _district,\r\n        string memory _city,\r\n        uint256 _propertyId,\r\n        uint256 _surveyNo,\r\n        address _owner,\r\n        uint256 _marketValue,\r\n        string memory _tenderName,\r\n        string memory _tendertype,\r\n        string memory _ipfsuri\r\n    ) external onlyAdmin {\r\n        require(\r\n            keccak256(abi.encodePacked(admins[msg.sender].state)) ==\r\n                keccak256(abi.encodePacked(_state)) &&\r\n                keccak256(abi.encodePacked(admins[msg.sender].district)) ==\r\n                keccak256(abi.encodePacked(_district)) &&\r\n                keccak256(abi.encodePacked(admins[msg.sender].city)) ==\r\n                keccak256(abi.encodePacked(_city)),\r\n            \"Admin can only register land of same city.\"\r\n        );\r\n\r\n        require(\r\n            landDetalsMap[_state][_district][_city][totalTendors].registered ==\r\n                false,\r\n            \"Survey Number already registered!\"\r\n        );\r\n\r\n        LandDetails storage newLandRegistry = landDetalsMap[_state][_district][\r\n            _city\r\n        ][totalTendors];\r\n\r\n        OwnerOwns storage newOwnerOwns = ownerMapsProperty[msg.sender][\r\n            userProfile[msg.sender].totalIndices\r\n        ];\r\n\r\n        AdminOwns storage newAdminOwns = adminMapsProperty[msg.sender][\r\n            userProfile[msg.sender].totalIndices\r\n        ];\r\n\r\n        newLandRegistry.owner = _owner;\r\n        newLandRegistry.admin = msg.sender;\r\n        newLandRegistry.propertyId = totalTendors;\r\n        newLandRegistry.surveyNumber = totalTendors;\r\n        newLandRegistry.index = userProfile[_owner].totalIndices;\r\n        newLandRegistry.registered = true;\r\n        newLandRegistry.marketValue = _marketValue;\r\n        newLandRegistry.markAvailable = true;\r\n        newLandRegistry.tenderName = _tenderName;\r\n        newLandRegistry.tendertype = _tendertype;\r\n        newLandRegistry.ipfsuri = _ipfsuri;\r\n\r\n        newOwnerOwns.surveyNumber = totalTendors;\r\n        newOwnerOwns.state = _state;\r\n        newOwnerOwns.district = _district;\r\n        newOwnerOwns.city = _city;\r\n\r\n        userProfile[_owner].totalIndices++;\r\n\r\n        totalTendors++;\r\n    }\r\n\r\n    // User_1: set user profile\r\n    function setUserProfile(\r\n        string memory _fullName,\r\n        string memory _gender,\r\n        string memory _email,\r\n        string memory _contact,\r\n        string memory _residentialAddr\r\n    ) public {\r\n        UserProfile storage newUserProfile = userProfile[msg.sender];\r\n\r\n        newUserProfile.fullName = _fullName;\r\n        newUserProfile.gender = _gender;\r\n        newUserProfile.email = _email;\r\n        newUserProfile.contact = _contact;\r\n        newUserProfile.residentialAddr = _residentialAddr;\r\n    }\r\n\r\n    // User_1: mark property available\r\n    function markMyPropertyAvailable(uint256 indexNo) external {\r\n        string memory state = ownerMapsProperty[msg.sender][indexNo].state;\r\n        string memory district = ownerMapsProperty[msg.sender][indexNo]\r\n            .district;\r\n        string memory city = ownerMapsProperty[msg.sender][indexNo].city;\r\n        uint256 surveyNumber = ownerMapsProperty[msg.sender][indexNo]\r\n            .surveyNumber;\r\n\r\n        require(\r\n            landDetalsMap[state][district][city][surveyNumber].markAvailable ==\r\n                false,\r\n            \"Property already marked available\"\r\n        );\r\n\r\n        landDetalsMap[state][district][city][surveyNumber].markAvailable = true;\r\n    }\r\n\r\n    // User_2: Request for buy  ownerAddress & index = arguements\r\n    function RequestForBuy(\r\n        string memory _state,\r\n        string memory _district,\r\n        string memory _city,\r\n        uint256 _surveyNo,\r\n        uint256 _BidAmount,\r\n        string memory _FileURI\r\n    ) external {\r\n        LandDetails storage thisLandDetail = landDetalsMap[_state][_district][\r\n            _city\r\n        ][_surveyNo];\r\n        require(\r\n            thisLandDetail.markAvailable == true,\r\n            \"This property is NOT marked for sale!\"\r\n        );\r\n\r\n        uint256 req_serialNum = thisLandDetail.noOfRequests;\r\n        thisLandDetail.requests[req_serialNum].whoRequested = msg.sender;\r\n        thisLandDetail.requests[req_serialNum].reqIndex = userProfile[\r\n            msg.sender\r\n        ].requestIndices;\r\n        thisLandDetail.requests[req_serialNum].BidAmount = _BidAmount;\r\n        thisLandDetail.requests[req_serialNum].FileURI = _FileURI;\r\n        thisLandDetail.noOfRequests++;\r\n\r\n        // adding requested land to user_2 profile\r\n        RequestedLands storage newReqestedLands = requestedLands[msg.sender][\r\n            userProfile[msg.sender].requestIndices\r\n        ];\r\n        newReqestedLands.surveyNumber = _surveyNo;\r\n        newReqestedLands.state = _state;\r\n        newReqestedLands.district = _district;\r\n        newReqestedLands.city = _city;\r\n\r\n        userProfile[msg.sender].requestIndices++;\r\n    }\r\n\r\n    // User_1: Accept the buy request; sell.\r\n    function AcceptRequest(uint256 _index, uint256 _reqNo) public {\r\n        uint256 _surveyNo = ownerMapsProperty[msg.sender][_index].surveyNumber;\r\n        string memory _state = ownerMapsProperty[msg.sender][_index].state;\r\n        string memory _district = ownerMapsProperty[msg.sender][_index]\r\n            .district;\r\n        string memory _city = ownerMapsProperty[msg.sender][_index].city;\r\n\r\n        // updating LandDetails\r\n        address newOwner = landDetalsMap[_state][_district][_city][_surveyNo]\r\n            .requests[_reqNo]\r\n            .whoRequested;\r\n\r\n        uint256 newOwner_reqIndex = landDetalsMap[_state][_district][_city][\r\n            _surveyNo\r\n        ].requests[_reqNo].reqIndex;\r\n\r\n        uint256 noOfReq = landDetalsMap[_state][_district][_city][_surveyNo]\r\n            .noOfRequests;\r\n\r\n        string memory _FileURI = landDetalsMap[_state][_district][_city][\r\n                _surveyNo\r\n            ].requests[_reqNo].FileURI;\r\n\r\n        // deleting requested land from all requesters AND removing all incoming requests\r\n        for (uint256 i = 0; i < noOfReq; i++) {\r\n            address requesterAddr = landDetalsMap[_state][_district][_city][\r\n                _surveyNo\r\n            ].requests[i].whoRequested;\r\n            uint256 requester_reqIndx = landDetalsMap[_state][_district][_city][\r\n                _surveyNo\r\n            ].requests[i].reqIndex;\r\n\r\n            delete requestedLands[requesterAddr][requester_reqIndx];\r\n            delete landDetalsMap[_state][_district][_city][_surveyNo].requests[\r\n                i\r\n            ];\r\n        }\r\n        \r\n        \r\n\r\n        landDetalsMap[_state][_district][_city][_surveyNo].owner = newOwner;\r\n        landDetalsMap[_state][_district][_city][_surveyNo].ipfsuri = _FileURI;\r\n        landDetalsMap[_state][_district][_city][_surveyNo]\r\n            .markAvailable = false;\r\n        landDetalsMap[_state][_district][_city][_surveyNo].noOfRequests = 0;\r\n\r\n        // deleting property from user_1's ownerMapsProperty\r\n        // delete ownerMapsProperty[msg.sender][_index];\r\n\r\n        // adding ownerMapsProperty for newOwner\r\n        uint256 newOwnerTotProp = userProfile[newOwner].totalIndices;\r\n        OwnerOwns storage newOwnerOwns = ownerMapsProperty[newOwner][\r\n            newOwnerTotProp\r\n        ];\r\n\r\n        newOwnerOwns.surveyNumber = _surveyNo;\r\n        newOwnerOwns.state = _state;\r\n        newOwnerOwns.district = _district;\r\n        newOwnerOwns.city = _city;\r\n\r\n        landDetalsMap[_state][_district][_city][_surveyNo]\r\n            .index = newOwnerTotProp;\r\n\r\n        userProfile[newOwner].totalIndices++;\r\n    }\r\n\r\n    //******* GETTERS **********\r\n\r\n    // return land details\r\n    function getLandDetails(\r\n        string memory _state,\r\n        string memory _district,\r\n        string memory _city,\r\n        uint256 _surveyNo\r\n    )\r\n        external\r\n        view\r\n        returns (\r\n            address,\r\n            uint256,\r\n            uint256,\r\n            uint256,\r\n            string memory,\r\n            string memory,\r\n            string memory\r\n        )\r\n    {\r\n        address owner = landDetalsMap[_state][_district][_city][_surveyNo]\r\n            .owner;\r\n        uint256 propertyid = landDetalsMap[_state][_district][_city][_surveyNo]\r\n            .propertyId;\r\n        uint256 indx = landDetalsMap[_state][_district][_city][_surveyNo].index;\r\n\r\n        uint256 mv = landDetalsMap[_state][_district][_city][_surveyNo]\r\n            .marketValue;\r\n\r\n        string memory tendorName = landDetalsMap[_state][_district][_city][\r\n            _surveyNo\r\n        ].tenderName;\r\n\r\n        string memory tendortype = landDetalsMap[_state][_district][_city][\r\n            _surveyNo\r\n        ].tendertype;\r\n\r\n        string memory ipfsuri = landDetalsMap[_state][_district][_city][\r\n            _surveyNo\r\n        ].ipfsuri;\r\n\r\n        return (owner, propertyid, indx, mv, tendorName, tendortype, ipfsuri);\r\n    }\r\n\r\n    function getRequestCnt_propId(\r\n        string memory _state,\r\n        string memory _district,\r\n        string memory _city,\r\n        uint256 _surveyNo\r\n    ) external view returns (uint256, uint256) {\r\n        uint256 _noOfRequests = landDetalsMap[_state][_district][_city][\r\n            _surveyNo\r\n        ].noOfRequests;\r\n        uint256 _propertyId = landDetalsMap[_state][_district][_city][_surveyNo]\r\n            .propertyId;\r\n        return (_noOfRequests, _propertyId);\r\n    }\r\n\r\n    function getRequesterDetail(\r\n        string memory _state,\r\n        string memory _district,\r\n        string memory _city,\r\n        uint256 _surveyNo,\r\n        uint256 _reqIndex\r\n    ) external view returns (address) {\r\n        address requester = landDetalsMap[_state][_district][_city][_surveyNo]\r\n            .requests[_reqIndex]\r\n            .whoRequested;\r\n\r\n        return (requester);\r\n    }\r\n\r\n    function getRequesterBidAmount(\r\n        string memory _state,\r\n        string memory _district,\r\n        string memory _city,\r\n        uint256 _surveyNo,\r\n        uint256 _reqIndex\r\n    ) external view returns (uint256) {\r\n        uint256 BidAmount = landDetalsMap[_state][_district][_city][_surveyNo]\r\n            .requests[_reqIndex]\r\n            .BidAmount;\r\n\r\n        return (BidAmount);\r\n    }\r\n\r\n    function getRequesterFileURI(\r\n        string memory _state,\r\n        string memory _district,\r\n        string memory _city,\r\n        uint256 _surveyNo,\r\n        uint256 _reqIndex\r\n    ) external view returns (string memory) {\r\n        string memory RequesterFileURI = landDetalsMap[_state][_district][\r\n            _city\r\n        ][_surveyNo].requests[_reqIndex].FileURI;\r\n\r\n        return (RequesterFileURI);\r\n    }\r\n\r\n    function getRequesterName(\r\n        string memory _state,\r\n        string memory _district,\r\n        string memory _city,\r\n        uint256 _surveyNo,\r\n        uint256 _reqIndex\r\n    ) external view returns (string memory) {\r\n        address requester = landDetalsMap[_state][_district][_city][_surveyNo]\r\n            .requests[_reqIndex]\r\n            .whoRequested;\r\n\r\n        string memory NameofRequester = userProfile[requester].fullName;\r\n        return (NameofRequester);\r\n    }\r\n\r\n    function isAvailable(\r\n        string memory _state,\r\n        string memory _district,\r\n        string memory _city,\r\n        uint256 _surveyNo\r\n    ) external view returns (bool) {\r\n        bool available = landDetalsMap[_state][_district][_city][_surveyNo]\r\n            .markAvailable;\r\n        return (available);\r\n    }\r\n\r\n    function getOwnerOwns(\r\n        uint256 indx\r\n    )\r\n        external\r\n        view\r\n        returns (string memory, string memory, string memory, uint256)\r\n    {\r\n        uint256 surveyNo = ownerMapsProperty[msg.sender][indx].surveyNumber;\r\n        string memory state = ownerMapsProperty[msg.sender][indx].state;\r\n        string memory district = ownerMapsProperty[msg.sender][indx].district;\r\n        string memory city = ownerMapsProperty[msg.sender][indx].city;\r\n\r\n        return (state, district, city, surveyNo);\r\n    }\r\n\r\n    function getAdminOwns(\r\n        uint256 indx\r\n    )\r\n        external\r\n        view\r\n        returns (string memory, string memory, string memory, uint256)\r\n    {\r\n        uint256 surveyNo = adminMapsProperty[msg.sender][indx].surveyNo;\r\n        string memory state = adminMapsProperty[msg.sender][indx].state;\r\n        string memory district = adminMapsProperty[msg.sender][indx].district;\r\n        string memory city = adminMapsProperty[msg.sender][indx].city;\r\n\r\n        return (state, district, city, surveyNo);\r\n    }\r\n\r\n    function getRequestedLands(\r\n        uint256 indx\r\n    )\r\n        external\r\n        view\r\n        returns (string memory, string memory, string memory, uint256)\r\n    {\r\n        uint256 surveyNo = requestedLands[msg.sender][indx].surveyNumber;\r\n        string memory state = requestedLands[msg.sender][indx].state;\r\n        string memory district = requestedLands[msg.sender][indx].district;\r\n        string memory city = requestedLands[msg.sender][indx].city;\r\n\r\n        return (state, district, city, surveyNo);\r\n    }\r\n\r\n    function getUserProfile()\r\n        external\r\n        view\r\n        returns (\r\n            string memory,\r\n            string memory,\r\n            string memory,\r\n            string memory,\r\n            string memory\r\n        )\r\n    {\r\n        string memory fullName = userProfile[msg.sender].fullName;\r\n        string memory gender = userProfile[msg.sender].gender;\r\n        string memory email = userProfile[msg.sender].email;\r\n        string memory contact = userProfile[msg.sender].contact;\r\n        string memory residentialAddr = userProfile[msg.sender].residentialAddr;\r\n\r\n        return (fullName, gender, email, contact, residentialAddr);\r\n    }\r\n\r\n    function getUserName(address _addr) external view returns (string memory) {\r\n        string memory fullName = userProfile[_addr].fullName;\r\n\r\n        return (fullName);\r\n    }\r\n\r\n    \r\n\r\n    function getestablishYear(\r\n        address _addr\r\n    ) external view returns (string memory) {\r\n        string memory year = vendors[_addr].year;\r\n\r\n        return (year);\r\n    }\r\n\r\n    function getIndices() external view returns (uint256, uint256) {\r\n        uint256 _totalIndices = userProfile[msg.sender].totalIndices;\r\n        uint256 _reqIndices = userProfile[msg.sender].requestIndices;\r\n\r\n        return (_totalIndices, _reqIndices);\r\n    }\r\n\r\n    function didIRequested(\r\n        string memory _state,\r\n        string memory _district,\r\n        string memory _city,\r\n        uint256 _surveyNo\r\n    ) external view returns (bool) {\r\n        LandDetails storage thisLandDetail = landDetalsMap[_state][_district][\r\n            _city\r\n        ][_surveyNo];\r\n        uint256 _noOfRequests = thisLandDetail.noOfRequests;\r\n\r\n        if (_noOfRequests == 0) return (false);\r\n\r\n        for (uint256 i = 0; i < _noOfRequests; i++) {\r\n            if (thisLandDetail.requests[i].whoRequested == msg.sender) {\r\n                return (true);\r\n            }\r\n        }\r\n\r\n        return (false);\r\n    }\r\n\r\n    function getTotalTendors() external view returns (uint256) {\r\n        return (totalTendors);\r\n    }\r\n}\r\n",
  "sourcePath": "E:\\VIT PUNE\\TY SEM 1\\EDI\\Nov\\11-11\\AAJ_KA_BLOCKCHAIN\\contracts\\Registry.sol",
  "compiler": {
    "name": "solc",
    "version": "0.8.23+commit.f704f362.Emscripten.clang"
  },
  "schemaVersion": "3.4.13",
  "updatedAt": "2023-11-11T16:30:18.816Z",
  "networkType": "ethereum",
  "devdoc": {
    "kind": "dev",
    "methods": {},
    "version": 1
  },
  "userdoc": {
    "kind": "user",
    "methods": {},
    "version": 1
  }
}